:020000040800F2
:1000000078F9002061250008890500088B050008A3
:100010008F05000893050008970500080000000000
:100020000000000000000000000000009B05000828
:100030009D050008000000009F050008A1050008BC
:100040007F0900087B2500087B250008A305000820
:100050007B2500087B2500087B2500087B25000800
:100060007B2500087B2500087B2500087B250008F0
:100070007B2500087B2500087B2500087B250008E0
:100080007B2500087B2500087B2500087B250008D0
:100090007B2500087B2500087B2500087B250008C0
:1000A0007B2500087B2500087B2500087B250008B0
:1000B0007B250008C10800087B2500087B25000877
:1000C0007B2500087B2500087B2500087B25000890
:1000D0007B2500083F2300087B25000857230008E4
:1000E0007B2500087B2500087B2500087B25000870
:1000F0007B2500087B2500087B2500087B25000860
:100100007B2500087B2500087B2500087B2500084F
:100110007B2500087B2500087B2500087B2500083F
:100120007B2500087B2500087B2500087B2500082F
:1001300000F002F800F042F80AA090E8000C8244B7
:100140008344AAF10107DA4501D100F037F8AFF294
:10015000090EBAE80F0013F0010F18BFFB1A43F0A5
:10016000010318470C4900002C490000103A24BF35
:1001700078C878C1FAD8520724BF30C830C144BF0C
:1001800004680C607047000000230024002500264E
:10019000103A28BF78C1FBD8520728BF30C148BFEA
:1001A0000B607047642904F06180732904F0B38107
:1001B000002070471FB51FBD10B510BD04F0C6F973
:1001C0001146FFF7F7FF00F009F804F0E4F903B473
:1001D000FFF7F2FF03BC02F01FF800004FF4A0602D
:1001E00002F062FF01F0AEFF00F0D4FA00F0E5FB90
:1001F0004FF4E13002F01FF80020A2490860A2A0ED
:1002000003F0B6FF4FF4504000F066FCA0490860D0
:100210000846006838B900209A4908609DA003F09C
:10022000A7FF00BFFEE701F042FB58B1002095494F
:10023000086001F03CFB0646314699A003F098FFA8
:1002400000BFFEE7002505E04FF47A7001F0B7FF2C
:10025000681CC5B20A2DF7DB41F61F4140F2CF7092
:1002600000F002FB00F024FE93A003F081FF4FF4A6
:100270007A7001F0A4FF01F06CF802E19248007876
:100280000128FAD100F0C1FA0446904800784006EF
:10029000000E8E4908708E4800784006000E8C498A
:1002A0000870012C09D18948007840F00100874985
:1002B000087088A003F05CFF03E08448007883495D
:1002C0000870022C09D18248007840F00100804972
:1002D000087083A003F04CFF03E07D4800787C4960
:1002E00008707B48007800F00F00012833D11EE031
:1002F00001206449091D08607C49C1F88801642017
:1003000001F05DFF00205F49091D08607749C1F8D1
:100310008801642001F053FF01205A49091D08603B
:100320007249C1F888014FF47A7001F048FF7048B3
:1003300000680028DCD06FA003F01AFF012071498B
:10034000087000204F49086001E001F029FD6D4868
:1003500000780028F9D15D48007800F00F000F28E0
:100360007DD169A003F004FF00216C4803F022FC5A
:1003700001204449091D08605C49C1F88801C82072
:1003800001F01DFF00203F49091D08605749C1F8D1
:100390008801642001F013FF01205449C1F888014D
:1003A0005F48B0F878006FF30E005D49A1F878005F
:1003B00000BF052300225BA1012000F017FD4FF4D0
:1003C0007A7001F0FCFE4FF44873002256A157A04A
:1003D00000F0BBFB4FF44873002253A153A000F080
:1003E000B4FB0028E5D000202649091D086000BFA5
:1003F0004FF4FA6300224CA150A000F0A6FB0028A5
:10040000F6D04FF47A7001F0DAFE16E0444950A0BD
:1004100003F0AEFE50A1424803F064FF28B950A19A
:100420003F4803F05FFF00B110E04FF47A7001F035
:10043000C6FE4FF47A7001F0C2FE4FF47A730022C8
:1004400039A149A000F081FB0028DFD100BF49A0FD
:1004500003F08EFE01200B49091D086000E005E055
:1004600000F077FF01212D4803F0A4FB45480078F8
:1004700020B92448007808B900F0EFFF00201249A5
:100480000870FBE6880123424C4544310D0A000008
:10049000340000204F766572666C6F77210D0A007C
:1004A0004F563236343020696E6974206661696C4B
:1004B000203A2025640D0A00496E69746174696FE1
:1004C0006E206F6B0D0A0000190000200000002054
:1004D000010000204B4559305F505245530D0A0032
:1004E0004B4559315F505245530D0A0000002342DD
:1004F0000801214274616B696E675F70686F746F89
:10050000210D0A0038000020737461727420616943
:10051000726B6973732E2E2E0D0A000000040040CA
:1005200098F200202B2B2B004F4B000041542B4303
:1005300049504D4F44453D300000000041542B438D
:1005400057534D41525453544152543D32000000D0
:1005500025730D0A00000000302E302E302E3000A2
:10056000535441495000000041542B4349465352D3
:10057000000000006169726B697373206F6B2E2E2F
:100580002E0D0A0030000020704700BFFEE700BFBC
:10059000FEE700BFFEE700BFFEE770477047704709
:1005A000704710B5012002F077FE10B1012002F073
:1005B00083FE10BD0CB50020019000906C480068CF
:1005C00040F480306A49086000BF6948006800F460
:1005D000003000900198401C0190009818B90198D3
:1005E000B0F5A06FF1D16248006800F4003010B19E
:1005F0000120009001E0002000900098012843D1E4
:100600005C48006840F010005A49086008460068DD
:1006100020F0030008600846006840F0020008600F
:100620005348406852494860084640684860084658
:10063000406840F4806048600846406820F47C10C0
:1006400048600846406840F4E81048600846006882
:1006500040F08070086000BF4548006800F00070FE
:100660000028F9D04248406820F003004049486023
:100670000846406840F00200486000BF3C484068BF
:1006800000F00C000828F9D10CBD10B5FFF792FF5F
:1006900010BD10B53648006840F0010034490860CC
:1006A00008464068344908403149486008460068B7
:1006B000324908402E4908600846006820F480202E
:1006C00008600846406820F4FE0048604FF41F00B0
:1006D0008860FFF7DAFF4FF000602949086010BD1D
:1006E00010B5002100200022214B5B6803F00C01B3
:1006F00021B1042906D0082928D107E0214B224C3A
:10070000236027E01F4B204C236023E0184B5B68DD
:1007100003F47010164B5B6803F48032022303EB82
:10072000904022B9194B4343174C23600DE0104B06
:100730005B6803F4003323B1144B4343124C236032
:1007400003E0104B4343104C236003E00D4B0E4C71
:10075000236000BF00BF064B5B68C3F303130C4C60
:10076000E15C094B1B68CB40074C236010BD0000C7
:1007700000100240002002400000FFF8FFFFF6FEDC
:1007800008ED00E000127A000400002000093D009E
:100790000800002008B50121702002F01DFA082091
:1007A000ADF8000010208DF8030003208DF8020042
:1007B0006946094801F054FF0821074801F0FDFF90
:1007C0000420ADF800006946034801F049FF042108
:1007D000014801F0F2FF08BD0018014008B50121F1
:1007E000142002F0F9F901211B4802F00AF8062052
:1007F000ADF8000003208DF8020048208DF80300BA
:100800006946164801F02CFF08BD10B51448007861
:10081000A0B11448006818B11248001D006868B9FA
:100820000A2001F0CCFC0F48006808B9012010BD77
:100830000C48001D006860B90220F8E7094800680C
:10084000012806D10748001D0068012801D104498C
:1008500008700020EBE700000002300000080140B3
:1008600018000020040121427FB505460C460121F5
:10087000022002F0BEF9ADF80850ADF804400020A7
:10088000ADF80A00ADF8060001A9224802F036FED4
:10089000012211461F4803F0A8F91D208DF8000021
:1008A00002208DF801008DF8020001208DF8030070
:1008B000684602F0FEFB0121164803F07BF97FBD7C
:1008C00010B50121134803F03EFC08B3124800782C
:1008D000401C1149087008460078062190FBF1F28F
:1008E00001FB120080B90D48006808B9012000E042
:1008F00000200A4908600A48007810B90120084918
:1009000008700020044908700121024803F02CFC03
:1009100010BD0000000400401A0000208C0123429A
:100920001900002008B500208DF800008DF80100A6
:100930008DF8020001208DF80300684602F0B9FB33
:1009400008BD70B506460C4615460121C80202F0E6
:1009500050F9284602F0C5FC204602F0CBFC304698
:1009600002F0E3FC02F0ECFCFFF7DCFF02F0D3FC4A
:1009700070BD10B50446204602F0D7FC10BD10B57E
:100980007F2002F0CCFC02F0DBFC10BD70B503460A
:100990000C4603E014F8015B03F8015B151EA2F19D
:1009A0000102F7D170BD30B5034601E003F8011B29
:1009B000141EA2F10102F9D130BD00B55A494FF41D
:1009C0006462C8680021FFF7EEFF57494FF46442A4
:1009D00088680021FFF7E7FF01205349087400BD34
:1009E0000022002106E05048C06830F8110000B134
:1009F000521C491CB1F5E46FF5D3642050434FF409
:100A0000E463B0FBF3F0C0B270472DE9F041064655
:100A10000024A0464448007C10B943490868804738
:100A20001EB94FF0FF30BDE8F081C6F34F1506F058
:100A30001F0008B1681C85B240F21F741AE03A48E2
:100A4000C06830F8140020B908F101001FFA80F8DE
:100A500001E04FF00008A8450BD1002705E032481F
:100A6000C068E11920F811507F1CAF42F7D3600134
:100A7000D9E7641E002CE2DA4FF0FF30D3E770B5FF
:100A800005462948007C20B927490868804701208D
:100A900070BDB5F5644F11D269092348C06830F8BC
:100AA0001120002406E000201F4BDB680E1923F8FC
:100AB0001600641C9442F6DB0020E9E70220E7E719
:100AC00070B5044604B970BD17488068251A2846D9
:100AD000FFF7D5FF00BFF6E770B505462846FFF7DC
:100AE00094FF0446601C08B9002070BD0E48806861
:100AF0002044FAE770B506460C462046FFF785FF0E
:100B00000546681C08B9002070BD07498968481966
:100B100022463146FFF73AFF3046FFF7D1FF024841
:100B200080682844F0E700001C00002010B504464F
:100B3000012C04D14021FE4801F03FFE03E040219A
:100B4000FB4801F03CFE10BD70472DE9F04107461F
:100B50000C4615461E46F748B0F878006FF30E00B5
:100B6000F449A1F878003A46F3A1F54801F06BFC8E
:100B70001CB915B90120BDE8F08100BFB6F57A7F38
:100B800006D94FF47A7001F01AFBA6F57A7603E0E5
:100B9000B0B201F014FB00E0F0E700BF0020E5492F
:100BA000B1F87810C1F30E01E24A5054B4B1ADB1BE
:100BB0002146104603F096FB08B1012000E000201A
:100BC00040B92946DB4803F08DFB08B1012000E065
:100BD000002008B10120CEE70020CCE744B1214637
:100BE000D44803F07FFB08B10120C4E70020C2E72E
:100BF0002946D04803F076FB08B10120BBE700206E
:100C0000B9E710B54FF47A7001F0D9FA02E0CDA03F
:100C100003F0AEFA40F2DC530022CFA1CFA0FFF7E1
:100C200094FF0028F3D0CEA003F0A2FA10BD10B5B7
:100C3000044624B1012C0AD0022C18D10FE040F652
:100C4000C413CAA2C4A1CCA0FFF77FFF10BD40F619
:100C5000C413C6A2C0A1CBA0FFF777FFF6E740F60A
:100C6000C413C2A2BCA1CAA0FFF76FFFEEE7002029
:100C7000ECE730B59FB004460D462B462246C7A18F
:100C800001A803F081FA41F658330022B2A101A86D
:100C9000FFF75BFF1FB030BD70B5A0B004460D4636
:100CA00016462B462246C2A102A8009603F06CFA13
:100CB0004FF47A730022A8A102A8FFF746FF20B0E4
:100CC00070BD10B586B004460CB1012000E00020D4
:100CD0000246BDA101A803F057FA4FF4FA730022AF
:100CE0009DA101A8FFF731FF06B010BDF0B5B9B066
:100CF00006460F4614461D46642120A803F058FB03
:100D000016B1012E10D107E03B46B3A2B3A120A833
:100D1000009403F039FA08E03B46B4A2AFA120A842
:100D2000009403F031FA00E000BF00BF052D06DAA1
:100D300020AB2A46AEA102A803F026FA04E020AABE
:100D4000B0A102A803F020FA4FF4FA73B1A282A175
:100D500002A8FFF7FAFE39B0F0BD70B5BCB004468A
:100D60000D461646FCB12B460122AEA11EA803F08B
:100D70000BFA3246B0A1684603F006FA4FF4FA7354
:100D8000002275A11EA8FFF7E0FE50B14FF4FA73E0
:100D9000002271A16846FFF7D8FE10B101203CB0D7
:100DA00070BD0020FBE72B4600229EA11EA803F089
:100DB000EBF94FF4FA73002267A11EA8FFF7C5FEF6
:100DC000EDE710B54FF4FA73002263A19EA0FFF780
:100DD000BCFE48B14FF4FA739FA2A0A1A0A0FFF7F8
:100DE000B4FE08B1012010BD0020FCE72DE9F04160
:100DF00086B006460C4617461D464FF000082EB139
:100E0000224683A14E4801F01EFB1CE0052D06DAA8
:100E1000BB1C2A4695A101A803F0B6F904E03A46A6
:100E200097A101A803F0B0F94FF4FA73002298A13A
:100E300001A8FFF78AFE4FF4FA73002295A120461D
:100E4000FFF783FE8046404606B0BDE8F08170B5EE
:100E5000044600253748B0F878006FF30E00354996
:100E6000A1F878000846B0F8780020F40040A1F816
:100E7000780000BF2F48B0F87800C00B0028F9D0E8
:100E800000202C49B1F87810C1F30E01294A5054C2
:100E900034B171A1104603F025FA38B1254D05E0B3
:100EA0007EA1244803F01EFA00B1224D284670BDF1
:100EB00010B50020FFF7BBFE4FF4FA73002226A105
:100EC00078A0FFF742FE10BD70B54FF4FA73002210
:100ED00021A174A0FFF739FE4FF47A7001F06FF989
:100EE00000BF1448B0F878006FF30E001149A1F864
:100EF000780078210F4803F039FA6DA20EA110484E
:100F000001F0A1FA4FF4FA7001F059F900200949F3
:100F1000B1F87810C1F30E01064A505411463CA0B6
:100F200003F026F90CA1034803F0DCF9D8E0000037
:100F30000008014098F2002025730D0A000000000F
:100F4000004800407761697420666F722072657096
:100F50006C79210D0A0000004F4B00004154000045
:100F60004154206F6B210D0A000000006E6F20635A
:100F700068616E676500000041542B43574D4F4434
:100F8000453D310041542B43574D4F44453D3200C0
:100F900041542B43574D4F44453D330041542B435F
:100FA000574A41503D222573222C222573220000EE
:100FB00041542B43575341503D222573222C222567
:100FC00073222C312C25730041542B4349504D552D
:100FD000583D256400000000544350002225732230
:100FE0002C222573222C257300000000554450004C
:100FF00041542B43495053544152543D25642C25B0
:101000007300000041542B43495053544152543D06
:1010100025730000414C5245415920434F4E4E45E7
:101020004354000041542B434950534552564552B6
:101030003D25642C2573000041542B4349505354E3
:101040004F3D25730000000041542B4349504D4F44
:1010500044453D31000000003E0000000D0A000044
:1010600041542B43495053454E44000041542B43B7
:10107000495053454E443D25642C25640000000032
:1010800041542B43495053454E443D2564000000D4
:101090003E20000053454E44204F4B002B49504406
:1010A0000000000041542B4349504D55583D30003D
:1010B00041542B43495053544152543D22544350C0
:1010C000222C22312E6C616273636E752E617070FA
:1010D0006C696E7A692E636F6D222C3830000000C7
:1010E00008B1012500E00025AFF2D801FC4803F06B
:1010F000F9F808B1012000E0002045EA0004F9A158
:10110000F74803F0EFF808B1012000E0002000B13B
:101110000024002C3FF4E5AE4FF4FA730022AFF246
:10112000C811AFF2DC00FFF710FD4FF4FA73AFF215
:10113000D802AFF2D801AFF2D800FFF706FD0523C1
:101140000022EAA10120FFF751FE05230022F4A1AD
:101150000120FFF74BFE05230022F8A10120FFF735
:1011600045FE05230022FAA10120FFF73FFE0523DB
:101170000022F1A10120FFF739FED948B0F878002C
:101180006FF30E00D649A1F878004FF4966001F095
:1011900016F80020D249B1F87810C1F30E01D04AF8
:1011A00050541146AFF2981002F0E2FF70BD70B5D6
:1011B0009AB00546642101A803F0FAF8012D02D087
:1011C000022D0CD105E0E7A2F1A101A802F0DCFF9D
:1011D00006E0FBA2EEA101A802F0D6FF00E000BFEE
:1011E00000BF4FF4FA730022AFF29421AFF24C101B
:1011F000FFF7ABFC4FF4FA7000F0E1FF00BFB84816
:10120000B0F878006FF30E00B549A1F8780000241B
:1012100004E00020B2490855601C84B2B4F5806F28
:10122000F7DBF2A2AFF2F021FA4801F00CF94FF42B
:101230007A7000F0C4FF0020A949B1F87810C1F31A
:101240000E01A74A50541146AFF23C2002F090FF25
:10125000AFF2FC21A24803F045F808B1012000E0FC
:10126000002048B9AFF254219D4803F03BF808B183
:10127000012000E0002008B1012000E00020064627
:1012800098A1974803F02EF808B1012000E0002053
:1012900000B10026002EB2D04FF4FA730022AFF254
:1012A0004831AFF25C20FFF750FC4FF4FA73AFF215
:1012B0005822A1A1AFF25820FFF747FC05230022D6
:1012C00001A90120FFF792FD05230022D2A10120F0
:1012D000FFF78CFD0523002298A10120FFF786FD72
:1012E00005230022D3A10120FFF780FD0523002262
:1012F00097A10120FFF77AFD052300228EA101208E
:10130000FFF774FD7648B0F878006FF30E0074496B
:10131000A1F8780040F6B83000F051FF0020704985
:10132000B1F87810C1F30E016D4A50541146AFF276
:10133000203002F01DFF80A002F01AFFAFF2E8316A
:10134000674802F0CFFF10B1C0A002F011FF1AB041
:1013500070BD10B540F2DC530022AFF20441AFF291
:101360000440FFF7F2FBC0B100BF5D48B0F8780061
:101370006FF30E005A49A1F878007821584802F01E
:10138000F5FF40F6C413B7A2AFF23441AFF2E0204C
:10139000FFF7DBFB0446002CE7D0B4A002F0E8FE28
:1013A0004FF448730022AFF25041AFF26430FFF7C0
:1013B000CCFB4FF4FA73AFF260325FA1AFF2603052
:1013C000FFF7C3FB10BD70B588B006460C46012080
:1013D000AC4908704248B0F878006FF30E004049FD
:1013E000A1F8780005230022A7490120FFF7FEFCA1
:1013F00004F17C02A5A1684602F0C6FE0523002286
:1014000069460120FFF7F2FC05230022A5490120CF
:10141000FFF7ECFC00250BE0705D7E49091D08809C
:1014200000BF7C48008800F040000028F9D06D1C07
:10143000A542F1DB052300229BA10120FFF7D6FC8A
:101440009EA002F095FE01209E49086000209E4962
:1014500008708C49087008B070BD00B5ADB0B422FA
:101460009A49684602F050FF012086490870002022
:101470001B49B1F87810C1F30E01194A50541146B6
:10148000AFF2744002F074FE91A1154802F02AFFF9
:1014900078B191A002F06CFE01208B490870002009
:1014A0008849086001E000F07BFC8748007800284C
:1014B000F9D18DA002F05CFE0948B0F878006FF316
:1014C0000E000749A1F8780005239D2269460120F6
:1014D000FFF78CFC00206B4908702DB000BD0000A8
:1014E00098F200204552524F5200000047455420C8
:1014F0002F4C6962726172795365617453657276BB
:1015000065722F73656174496E666F3F726F6F6DA0
:101510003D3120485454502F312E310D0A00000027
:10152000486F73743A203139322E3136382E3139C2
:10153000312E323A383038300D0A0000557365725A
:101540002D4167656E743A206162630D0A000000E8
:10155000436F6E6E656374696F6E3A20636C6F7370
:10156000650D0A007573723D6A756E65267061734C
:1015700073776F72643D31393932303231312672CE
:1015800065715F747970653D53574950450000009F
:10159000474554202F4C69627261727953656174BA
:1015A0005365727665722F757372496E666F3F254B
:1015B0007320485454502F312E310D0A0000000082
:1015C0007573723D736F6C61722670617373776FA0
:1015D00072643D3139393230323131267265715F92
:1015E000747970653D5357495045000041542B4371
:1015F000495053544152543D22544350222C2231DD
:1016000039322E3136382E3139312E33222C3830C2
:101610000000000000480040486F73743A203139E0
:10162000322E3136382E3139312E333A3830383087
:101630000D0A0000436F6E74656E742D4C656E6705
:1016400074683A2033380D0A000000006C6F672080
:10165000696E207375636365737366756C6C790D61
:101660000A000000414C524541445900416C7265EA
:1016700061647920436F6E6E6563746564210D0A41
:101680000000000030000020E0490008436F6E7445
:10169000656E742D4C656E6774683A25640D0A0D8D
:1016A0000A000000704900080D0A2D2D2D2D6961DA
:1016B0006E7368692D2D0D0A0000000073656E744D
:1016C0000D0A00008801234238000020B0450008C0
:1016D000333030320000000074616B696E675F70F8
:1016E000686F746F210D0A0073656E64696E672000
:1016F0007175657374210D0A0000000001464906EA
:10170000FD4A926942F00102FB4B9A61FB4A526822
:1017100022F0E062F94B5A601A4652680A435A6056
:1017200070472DE9F04104460D46E11704EB917135
:101730008910A4EB810111B10120BDE8F081E91706
:1017400005EB91718910A5EB810109B10220F4E745
:101750002046E11704EB9171C1F38F072846E91782
:1017600005EB9171C1F38F060021FF2000F09DFC75
:101770000421E02000F099FCF9B25A2000F095FC19
:10178000F1B25B2000F091FCC7F30128042000EACD
:10179000A61040EA080841465C2000F086FC0021C3
:1017A000E02000F082FC0020C7E72DE9F04104466C
:1017B000002580268027072C19D2DFE804F01804C2
:1017C00006080C101400402511E018250FE018251C
:1017D0004026C0270BE018254026402707E01825A3
:1017E000A026402703E018254026A62700BF00BFFB
:1017F0000021FF2000F059FC00217C2000F055FC66
:1018000029467D2000F051FC05217C2000F04DFC94
:1018100031467D2000F049FC39467D2000F045FC32
:10182000BDE8F08170B50546B54800EBC50600245B
:1018300009E0012202EB4402B15C16F8140000F04A
:1018400034FC601CC4B2042CF3DB70BD10B5002462
:1018500000BF0AE0AB4A02EB44025178A94A12F8F1
:10186000140000F022FC601C84B2082CF2D3002487
:101870000AE0A54A02EB44025178A34A12F8140088
:1018800000F013FC601C84B2072CF2D30021FF206F
:1018900000F00BFC1421D32000F007FC0121FF20F5
:1018A00000F003FC0521112000F0FFFB10BD38B54E
:1018B000012140F23D1001F08FF90220ADF8000047
:1018C00048208DF8030003208DF8020069468F48F8
:1018D00000F0C6FE02218D4800F06FFF4020ADF8F9
:1018E000000010208DF803006946884800F0B8FE1B
:1018F0004021864800F061FF4FF68070ADF800008F
:1019000048208DF803006946814800F0A9FE802038
:10191000ADF8000048208DF8030069467B4800F0D0
:101920009FFE8021794800F048FF4FF40050ADF849
:10193000000010208DF803006946744800F090FE06
:101940004FF40051714800F038FF0120ADF800005D
:1019500048208DF8030069466C4800F081FE0121A3
:101960006A4800F02AFF01216A4800F04AFF00207F
:10197000694908600A2000F022FC00206749C1F88C
:10198000B4010A2000F01BFC012063491C310860EF
:1019900000F090FA0121FF2000F087FB8021122047
:1019A00000F083FB322000F00AFC1C2000F09CFBBE
:1019B00004464FF6FF7000EA04241D2000F094FB5B
:1019C000044347F6A270844201D0012038BD0A20AA
:1019D00000F08AFB04464FF6FF7000EA04240B2057
:1019E00000F082FB044342F24260844201D00220B4
:1019F000ECE700250AE04A4A02EB45025178484AE2
:101A000012F8150000F051FB681CC5B2B22DF2D3DC
:101A100040F2DC5000F0D3FBFFF718FF0220FFF785
:101A200001FF0020FFF7C1FE4FF47A7000F0C7FB02
:101A30004FF440714FF48060FFF773FE0020C5E75C
:101A40002DE9F04104465E254126542734B1022C8D
:101A50000ED0032C10D0042C16D111E00021FF2051
:101A600000F023FB0021C72000F01FFBBDE8F08140
:101A7000652541264F2707E052254126662703E0CA
:101A800042253F26712700BF00BF0021FF2000F044
:101A90000CFB4021C72000F008FB2946CC2000F0B9
:101AA00004FB3146CD2000F000FB3946CE2000F08B
:101AB000FCFA00BFDAE770B50446A01C082141EA31
:101AC0000010C5B20021FF2000F0EFFA00217C20B9
:101AD00000F0EBFA02217D2000F0E7FA03217C20E0
:101AE00000F0E3FA29467D2000F0DFFA29467D2048
:101AF00000F0DBFA70BD0000001002400000014061
:101B0000484900082A4900083A49000800100140E5
:101B100000140140000230009801224200002242DD
:101B20006446000810B504460021FF2000F0BDFA0D
:101B300000217C2000F0B9FA04217D2000F0B5FAE4
:101B400009217C2000F0B1FA2007010E7D2000F071
:101B5000ACFA00217D2000F0A8FA10BD70B5044653
:101B60002025202634B1012C07D0032C08D0042CCA
:101B70000CD108E01825342608E01C252A2605E0AB
:101B80002425162602E028250C2600BF00BF0021D0
:101B9000FF2000F08AFA00217C2000F086FA042160
:101BA0007D2000F082FA07217C2000F07EFA2021BF
:101BB0007D2000F07AFA29467D2000F076FA314641
:101BC0007D2000F072FA06217D2000F06EFA70BDD3
:101BD00070B505460121FF2000F067FA122000F0E1
:101BE00083FA044624F002040DB144F002042146B5
:101BF000122000F05AFA70BD2DE9F04705460E4656
:101C000017469846384607EBD07105EB61011FFA7D
:101C100081F9404608EBD07106EB61011FFA81FAA9
:101C20000121FF2000F041FA032000F05DFA044694
:101C300004F0F0040AF00301304661F39F0004430E
:101C40002146032000F031FAC6F38701192000F085
:101C50002CFACAF387011A2000F027FA322000F08C
:101C600043FA044604F0C00409F00701284661F372
:101C7000DF0004432146322000F017FAC5F3C70104
:101C8000172000F012FAC9F3C701182000F00DFA6E
:101C9000BDE8F0872DE9F0478046894614461D4689
:101CA000E11704EB91718910A4EB810111B10120BE
:101CB000BDE8F087E91705EB91718910A5EB81016B
:101CC00009B10220F4E72046E11704EB9171C1F35A
:101CD0008F062846E91705EB9171C1F38F0A0021A1
:101CE000FF2000F0E2F90421E02000F0DEF9F1B27B
:101CF000512000F0DAF90AF0FF01522000F0D5F986
:101D000008F0FF01532000F0D0F909F0FF01542042
:101D100000F0CBF9802000EA6A07702000EA291061
:101D20000743082000EA66100743C8F30220074370
:101D30003946552000F0B9F9802000EAA601572065
:101D400000F0B3F90021E02000F0AFF90020AFE788
:101D500070B504460D460021FF2000F0A6F90421CD
:101D6000E02000F0A2F9C4F3C701C02000F09DF903
:101D7000C5F3C701C12000F098F96007860E05F091
:101D800007000643802000EA2410064331468C20D9
:101D900000F08BF90021E02000F087F9002070BDF1
:101DA00070B50024002600BF0AE000BF3548006877
:101DB0000128FBD000BF334800680028FBD0641C1A
:101DC000032CF2D319E013E000BF2E481838006846
:101DD0000028FAD02C480068C0F307202B49096876
:101DE000885500BF2748183800680128FAD0761CAB
:101DF00024481C3800680028E6D1224800680128E1
:101E0000E1D000240CE021480068005DFF2806D1E5
:101E10001E480168601C085CD82800D102E0641CE0
:101E2000B442F0D300BFB44203D119A002F0A0F92C
:101E30001CE021461BA002F09BF9254613E0134845
:101E40000068405DD9280DD1681E10490968085CFA
:101E5000FF2807D16A1C111B0C4A12681019FFF7E2
:101E6000B2FA02E06D1CB542E9D300BF4FF4504115
:101E70000648006802F07AFA0D48007808B1FFF7CA
:101E80008FFF70BD1C012242081401403400002065
:101E90006E6F206461746120697320666F756E6473
:101EA0000D0A0000666F756E643A25640D0A000025
:101EB0003800002008B50121082000F08DFE8020A8
:101EC000ADF8000048208DF8030003208DF80200D3
:101ED0006946994800F0C4FB8021974800F06DFCEA
:101EE0004020ADF8000010208DF8030069469248AC
:101EF00000F0B6FB4021904800F05FFC8E4800687F
:101F000020F070408C4908600846006840F040505E
:101F1000086008BD10B50120884908608849C1F8EB
:101F20009801322000F027F900208449086032200F
:101F300000F021F900208249C1F8980110BD10B5C8
:101F400000207E490860322000F015F901207C490C
:101F5000C1F89801322000F00EF90120774908609D
:101F6000322000F008F910BD10B5322000F003F95E
:101F70000120724908607249C1F89801322000F0CE
:101F8000FAF800206D49091F0860322000F0F3F8CC
:101F900000206B49C1F89C01322000F0ECF810BD24
:101FA00070B5044600261BE004F0800018B1012043
:101FB0006249086002E00020604908606006040E83
:101FC000322000F0D8F801205C49091F0860322057
:101FD00000F0D1F800205A49C1F89801701CC6B22F
:101FE000082EE1DB5448006820F070405249086038
:101FF0000846006840F000400860322000F0BBF85E
:1020000001204E49091F0860322000F0B4F84C4806
:10201000D0F81C0108B1012500E000250020474947
:10202000091F08604448006820F070404249086079
:102030000846006840F040500860284670BD70B502
:1020400000243D48006820F070403B490860084685
:10205000006840F000400860082517E0322000F0DA
:102060008AF801203549091F08606006040E3448CB
:10207000D0F81C0108B1601CC4B2322000F07BF81B
:1020800000202E49091F0860681EC5B2002DE5DC3E
:102090002948006820F07040274908600846006819
:1020A00040F040500860204670BD70B505460C46B3
:1020B0000026FFF72FFF6020FFF772FF00B1012617
:1020C000642000F058F82846FFF76AFF00B10126A7
:1020D000642000F050F82046FFF762FF00B10126AF
:1020E000FFF72DFF304670BD70B504460025FFF7A1
:1020F00011FF6020FFF754FF642000F03CF82046F9
:10210000FFF74EFF642000F036F8FFF718FF642059
:1021100000F031F8FFF7FEFE6120FFF741FF642079
:1021200000F029F8FFF78BFF0546FFF71DFFFFF7CB
:1021300006FF284670BD0000000C01409C81214232
:102140000080214210B56FF0040000F0FCFF2E4823
:1021500000682E49B0FBF1F02D4908700846007860
:1021600000EB4001C1EBC0104FF6FF7101EAC00067
:102170002849088010BD0146254A12784A434FF08D
:10218000E0235A6100229A611A46126942F0010264
:102190001A6100BF4FF0E022106900F001021AB18D
:1021A00000F48032002AF5D04FF0E022126922F0CC
:1021B00001024FF0E0231A6100229A617047014644
:1021C000144A12884A434FF0E0235A6100229A6170
:1021D0001A46126942F001021A6100BF4FF0E02274
:1021E000106900F001021AB100F48032002AF5D023
:1021F0004FF0E022126922F001024FF0E0231A6151
:1022000000229A61704700000400002000127A004A
:102210003A0000203C000020014600BF704700BF8C
:10222000CA4A128802F04002002AF9D0C2B2C74B53
:102230001B1D1A80704710B586B00446012144F278
:102240000C0000F0C9FC0121880400F0D2FC4FF41E
:102250000070ADF8140003208DF8160018208DF8DA
:10226000170005A9BA4800F0FBF94FF48060ADF8FB
:10227000140005A9B74800F0F3F94FF48060ADF8F9
:10228000140004208DF8170005A9B14800F0E8F902
:102290004FF40060ADF8140005A9AE4800F0E0F975
:1022A00027208DF8000002208DF801008DF8020033
:1022B00001208DF80300684600F0FBFE25208DF814
:1022C000000002208DF801008DF8020001208DF839
:1022D0000300684600F0EDFE01940020ADF8080010
:1022E000ADF80A00ADF80C00ADF810000C20ADF808
:1022F0000E0001A9954800F016FD012240F225517B
:10230000924800F0A8FD0121904800F098FD40217E
:102310008E4800F06FFE01A98F4800F004FD0122F5
:1023200040F225518C4800F096FD01218A4800F0CA
:1023300086FD4021884800F05DFE06B010BD10B556
:1023400040F22551814800F06BFE18B17F4800F043
:10235000E7FDC4B210BD10B540F225517E4800F033
:102360005FFE10B37C4800F0DBFDC4B27B48B0F8E0
:102370007800C0F30E0077280FDA7849B1F87810AA
:10238000C1F30E00411C754AB2F8782061F30E02C9
:102390007249A1F878200C5407E07048B0F8780032
:1023A0006FF30E006D49A1F8780040F224416A48AD
:1023B00000F036FE012814D10821674800F027FEFE
:1023C000654800F0ADFD6548B0F8780020F40040A5
:1023D00000F500406149A1F878005F4800F0A0FDD9
:1023E000C4B210BDF0B503460D4616460027294677
:1023F0000A2E03D0002008702846F0BD33B93020E3
:1024000001F8010B002008702846F6E7002B03DADC
:102410002D2001F8010B5B4242F210720DE093FB9C
:10242000F2F404B937B104F1300001F8010B04FBF8
:10243000123301270A2092FBF0F2002AEFDC002081
:1024400008702846D9E70FB470B586B006460CA8C8
:10245000019073E00B9800785C281CD10B98401C0D
:102460000B9000786E2809D072280FD10D213046CC
:1024700000F052FD0B98401C0B900BE00A213046F7
:1024800000F04AFD0B98401C0B9003E00B98401C99
:102490000B9000BF4BE00B980078252840D10B989B
:1024A000401C0B900078642818D0732833D1019811
:1024B00010C801900BE02178304600F02DFD00BFE0
:1024C0008021304600F096FD0028F9D0641C207869
:1024D0000028F0D10B98401C0B9020E0019820C8F8
:1024E00001900A2202A92846FFF77CFF02AC0BE00C
:1024F0002178304600F010FD00BF8021304600F00A
:1025000079FD0028F9D0641C20780028F0D10B98C0
:10251000401C0B9003E00B98401C0B9000BF06E0A2
:102520000B9810F8011B0B90304600F0F5FC00BF33
:102530008021304600F05EFD0028F9D00B9800782D
:10254000002887D106B070BC5DF814FB003801404C
:1025500000080140000C01400048004098F20020B3
:102560000948804709480047FEE7FEE7FEE7FEE727
:10257000FEE7FEE7FEE7FEE7FEE7FEE70448054963
:10258000054A064B70470000930600083101000819
:1025900078F3002078F9002078F5002078F5002005
:1025A00010B50446CC48844208D10121042000F033
:1025B0002DFB0021042000F029FB46E0C74884429F
:1025C00008D10121082000F021FB0021082000F0A3
:1025D0001DFB3AE0C248844208D10121102000F0DE
:1025E00015FB0021102000F011FB2EE0BD488442B5
:1025F00008D10121202000F009FB0021202000F05B
:1026000005FB22E0B848844208D10121402000F0B7
:10261000FDFA0021402000F0F9FA16E0B3488442A8
:1026200008D10121802000F0F1FA0021802000F083
:10263000EDFA0AE0AE48844207D10121801500F08E
:10264000E5FA0021A01500F0E1FA10BD10B5012156
:10265000084600F0DBFA0021012000F0D7FA10BD97
:102660002DE9F04102460025002600200023002429
:10267000002791F803C00CF00F0591F803C00CF08F
:10268000100CBCF1000F03D091F802C04CEA050514
:1026900091F800C0BCF1000F31D0146800202BE08D
:1026A0004FF0010C0CFA00F3B1F800C00CEA03067D
:1026B0009E4220D183004FF00F0C0CFA03F7BC436D
:1026C00005FA03FC4CEA040491F803C0BCF1280F9E
:1026D00006D14FF0010C0CFA00FCC2F814C00AE05D
:1026E00091F803C0BCF1480F05D14FF0010C0CFA72
:1026F00000FCC2F810C0401C0828D1D31460B1F807
:1027000000C0BCF1FF0F34DD546800202EE000F162
:10271000080C4FF0010808FA0CF3B1F800C00CEAFD
:1027200003069E4221D183004FF00F0C0CFA03F7F1
:10273000BC4305FA03FC4CEA040491F803C0BCF165
:10274000280F05D100F1080C08FA0CF8C2F8148023
:1027500091F803C0BCF1480F07D100F1080C4FF00D
:10276000010808FA0CF8C2F81080401C0828CED3E3
:102770005460BDE8F0814FF6FF7101800221817045
:102780000421C17070470246002093680B400BB1D2
:10279000012000E0002070470146886880B2704741
:1027A00002460020D3680B400BB1012000E000205E
:1027B00070470146C86880B2704701617047416147
:1027C00070470AB1016100E041617047C160704724
:1027D0004FF480320A438261816182618269826939
:1027E000704702460020434B18684FF6807318402C
:1027F00040EA021008433F4B186070473E49C861E9
:102800007047F0B50A46002300240021002500F09F
:102810000046B6F1004F02D1364EF16901E0354E67
:102820007168C0F3034583B200F44016B6F5401F4B
:1028300008D121F070612F4E766826F070662D4F1A
:102840007E6012E000F48016B6F5801F06D10326E4
:1028500006FA05F4A14341F0706106E0460D360129
:1028600003FA06F6B14341F0706122B1460D36011C
:1028700003FA06F6314300F00046B6F1004F02D1EC
:102880001C4EF16101E01B4E7160F0BD30B50022BD
:102890008B071C0F0F2303FA04F2164B08338C101E
:1028A00053F824309343134C08348D1044F82530EA
:1028B00023468C1053F824308C07240F00FA04F4BC
:1028C00023430C4C08348D1044F8253030BD0A49A0
:1028D000DC3108607047000000080140000C014036
:1028E000001001400014014000180140001C01408C
:1028F000002001400000014000002042DF48006845
:1029000040F00100DD49086008464068DC490840A5
:10291000DA49486008460068DA490840D749086043
:102920000846006820F4802008600846406820F4CB
:10293000FE0048604FF41F0088607047CF49096867
:1029400021F48031CD4A11601146096821F48021BB
:102950001160B0F5803F03D0B0F5802F0ED106E0B6
:10296000C649096841F48031C44A116007E0C3498F
:10297000096841F4A021C14A116000E000BF00BF16
:10298000704710B501460022002300204A11012A99
:1029900002D1BA4C236806E0022A02D1B74C236A5E
:1029A00001E0B64C636A01F01F02012494401C4010
:1029B0000CB1012000E0002010BD38B500200090CF
:1029C0000024002500BF3120FFF7DBFF05460098FB
:1029D000401C00900098B0F5A06F01D0002DF2D0FF
:1029E0003120FFF7CEFF08B1012400E0002420468B
:1029F00038BD01460020A14A106820F0F80040EAE6
:102A0000C10010607047A04908607047024600206E
:102A10009A4B586820F47C1042EA01031843974B04
:102A20005860704798490866704701460020934AED
:102A3000506820F003000843506070478F4840689A
:102A400000F00C007047014600208C4A506820F0CE
:102A5000F00008435060704701460020874A5068E4
:102A600020F4E06008435060704701460020834A2C
:102A7000506820F4605040EAC1005060704729B1AE
:102A80007E4A527A02437D4B5A7204E07B4A527A64
:102A900082437A4B5A7270477B49D831086070473D
:102AA00001460020754A506820F4404008435060B9
:102AB00070470021714A20321170704A82F820104C
:102AC000012802D004280AD104E001216B4A2032F7
:102AD000117005E00521694A2032117000E000BF45
:102AE00000BF70476949086070476449096A01433B
:102AF000624A11627047654944390860704730B5D1
:102B000000210022002400235C4D6D6805F00C01BB
:102B100021B1042905D0082923D105E05C4D0560C9
:102B200022E05B4D05601FE0544D6D6805F47012A6
:102B3000524D6D6805F48034022505EB92421CB9B4
:102B4000544D554305600BE04C4D6D6805F4003560
:102B50001DB1504D5543056002E04D4D5543056094
:102B600002E04B4D056000BF00BF444D6D6805F0AD
:102B7000F0010909484D6B5C0568DD4045603F4D3B
:102B80006D6805F4E061090A434D6B5C4568DD4002
:102B900085603A4D6D6805F46051C90A3E4D6B5C25
:102BA0004568DD40C560354D6D6805F44041890BD1
:102BB0003A4D6B5CC568B5FBF3F5056130BD29B1D5
:102BC0002E4A526902432D4B5A6104E02B4A526946
:102BD00082432A4B5A61704729B1284A92690243BD
:102BE000264B9A6104E0254A92698243234B9A61FD
:102BF000704729B1214AD2690243204BDA6104E0CF
:102C00001E4AD26982431D4BDA61704729B11B4AC3
:102C1000D2680243194BDA6004E0184AD268824352
:102C2000164BDA60704729B1144A12690243134BFC
:102C30001A6104E0114A12698243104B1A6170470D
:102C400012494039086070470F49C86470470B4902
:102C5000C87170470948406A40F08070074948626F
:102C6000704701460020054A92680A400AB10120D7
:102C700000E0002070470149887270470010024050
:102C80000000FFF8FFFFF6FE0000424280044242CF
:102C900000127A0000093D0044000020540000208A
:102CA00010B50446FB48844209D101218803FFF78F
:102CB000ADFF00214FF48040FFF7A8FF32E0F64857
:102CC000844209D101214804FFF7ADFF00214FF4F0
:102CD0000030FFF7A8FF25E0F048844209D1012128
:102CE0008804FFF7A0FF00214FF48020FFF79BFF2F
:102CF00018E0EB48844209D10121C804FFF793FF93
:102D000000214FF40020FFF78EFF0BE0E5488442DE
:102D100008D101210805FFF786FF00214FF480103C
:102D2000FFF781FF10BD2DE9F04786B005460E463E
:102D30000024A24600BFA1460027B08900B100BF11
:102D40002F462C8A4CF6FF700440F08804432C82F6
:102D5000AC894EF6F3100440B0883189084371897C
:102D600008430443AC81AC8A4FF6FF400440B0896D
:102D70000443AC8201A8FFF7C2FEC648874202D1D5
:102D8000DDF810A001E0DDF80CA0A88900F40040F7
:102D900040B10AEBCA0000EB0A1031684900B0FBF1
:102DA000F1F807E00AEBCA0000EB0A10316889006D
:102DB000B0FBF1F86420B8FBF0F0040120096421B5
:102DC00001FB1089A88900F4004040B1322000EBDB
:102DD000C900B0FBF1F000F00700044308E0322026
:102DE00000EB09106421B0FBF1F000F00F00044388
:102DF0002C8106B0BDE8F0874FF416510160002128
:102E00008180C18001810C21418100218181704735
:102E100010B502460020108A4FF2FF0318400B88BD
:102E20004C8823438C882343CC8823431843108247
:102E300010BD0021018041808180C180704721B197
:102E4000828942F40052828104E082894DF6FF7348
:102E50001A4082817047F0B5034600240026002501
:102E6000002040F66A17B94200D100BF1846C1F3EE
:102E7000421401F01F06012707FA06F5012C01D1C3
:102E80000C3004E0022C01D1103000E014301AB1F3
:102E900007682F43076002E00768AF430760F0BD93
:102EA0001AB1838A0B43838202E0838A8B43838235
:102EB0007047028A4FF6F0731A400282028A0A4370
:102EC0000282704782894FF2FF731A4082818289A1
:102ED0000A438281704721B1828942F002028281D5
:102EE00004E082894FF6FD731A4082817047028A9E
:102EF0004FF6DF731A400282028A0A430282704749
:102F000021B1028A42F48042028204E0028A4BF636
:102F1000FF731A4002827047C1F308028280704733
:102F200001468888C0F308007047818941F001019B
:102F300081817047028BD2B20283028B42EA012266
:102F400002837047028B02F47F420283028B0A43A2
:102F50000283704721B1828A42F02002828204E01B
:102F6000828A4FF6DF731A408282704721B1828ACB
:102F700042F01002828204E0828A4FF6EF731A4018
:102F80008282704721B1828A42F00802828204E084
:102F9000828A4FF6F7731A408282704721B1828984
:102FA00042F40042828103E08289C2F30E028281F0
:102FB000704721B1828A42F40062828204E0828AF0
:102FC0004FF2FF731A4082827047828A4FF6FB737A
:102FD0001A408282828A0A438282704721B1828AA1
:102FE00042F00202828204E0828A4FF6FD731A40A8
:102FF0008282704702460020B1F5007F00D100BFF9
:1030000013880B400BB1012000E00020704701F451
:103010000072B2F5007F00D100BFCA430280704742
:1030200070B50246002400230025002040F66A16F1
:10303000B14200D100BFC1F3421501F01F030126C8
:1030400006FA03F3012D02D19689334006E0022DE2
:1030500002D1168A334001E0968A33400C120126D1
:1030600006FA04F41688344013B10CB1012000E0D4
:10307000002070BD10B50022002340F66A14A14262
:1030800000D100BF0A1201249440A3B2DC430480A3
:1030900010BD0000003801400044004000480040DE
:1030A000004C00400050004031490143314A11605A
:1030B000704770B5002100230F22C47804B32D4C53
:1030C000246804F4E064C4F5E064210AC1F1040357
:1030D000CA40447804FA03F184781440214309017A
:1030E000254C0678A155047804F01F050124AC4056
:1030F00005786D11AD0005F1E025C5F8004109E046
:10310000047804F01F050124AC401C4D06787611AC
:1031100045F8264070BD1A4A0A400243154B1B1F52
:103120001A60704739B1134A121D12680243114BDD
:103130001B1D1A6006E00F4A121D126882430D4BD8
:103140001B1D1A607047042808D14FF0E02109695F
:1031500041F004014FF0E022116107E04FF0E0215F
:10316000096921F004014FF0E0221161704700006D
:103170000000FA050CED00E000E400E080E100E072
:1031800080FFFF1F29B1504A128802434E4B1A801C
:1031900004E04D4A128882434B4B1A8070474A48DC
:1031A000001D008840F010004749091D0880704745
:1031B0004548001D00884FF6EF7108404249091D3F
:1031C00008807047002140481C300188001F00889B
:1031D00041EA0040704700B50246FFF7E0FF100CDF
:1031E000394918310880091D0A80FFF7E1FF00BD49
:1031F00000B50246FFF7D3FFC2F30340324908315E
:103200000880091D0A80FFF7D3FF00BD00B5024604
:10321000FFF7C5FF100C2C4920310880091D0A80DA
:10322000FFF7C6FF00BD00202749103109880907B4
:10323000080B2549143109880843704700BF22480C
:10324000001D008800F020000028F8D070471E48BC
:10325000001D00884FF6F77108401B49091D0880C2
:1032600000BF1948001D008800F008000028F8D0B1
:10327000704701460020144A121D12880A400AB104
:10328000012000E0002070470F49091D0988814393
:103290000D4A121D11807047014600200A4A121D76
:1032A00012880A40D0B2084A12880A4012B108B106
:1032B000012000E0002070470349091D098881436F
:1032C000014A121D118070470028004010B50121ED
:1032D000C802FFF7A8FC00214FF40060FFF7A3FC31
:1032E00010BD0021194A126822F4C0710143174A27
:1032F0001160704708B5002100911449096821F058
:103300007F01009100F07F01009A114300910F4A64
:103310000099116008BD01200D490860704700F058
:103320007F010A4A121F1160704740F08001074A6E
:10333000121F116070470548001D0068C0B2704739
:1033400000200249091D086070470000042C00405D
:10335000A480054210B50446FE48844208D10121EC
:10336000C014FFF753FC0021E014FFF74FFCC4E04A
:10337000B4F1804F08D101210846FFF754FC002129
:103380000120FFF750FCB8E0F348844208D1012146
:103390000220FFF748FC00210220FFF744FCACE0CC
:1033A000EE48844208D101210420FFF73CFC0021B3
:1033B0000420FFF738FCA0E0E948844208D101214D
:1033C0000820FFF730FC00210820FFF72CFC94E0D8
:1033D000E448844208D101211020FFF724FC002199
:1033E0001020FFF720FC88E0DF48844208D101214B
:1033F0002020FFF718FC00212020FFF714FC7CE0C0
:10340000DA48844208D101214014FFF7FFFB002174
:103410006014FFF7FBFB70E0D548844209D101211D
:10342000C804FFF7F3FB00214FF40020FFF7EEFB89
:1034300063E0D048844209D101210805FFF7E6FB8B
:1034400000214FF48010FFF7E1FB56E0CA488442A8
:1034500009D101214805FFF7D9FB00214FF40010E5
:10346000FFF7D4FB49E0C548844208D10121402040
:10347000FFF7D9FB00214020FFF7D5FB3DE0C04816
:10348000844208D101218020FFF7CDFB002180205C
:10349000FFF7C9FB31E0BB48844208D10121801508
:1034A000FFF7C1FB0021A015FFF7BDFB25E0B648E3
:1034B000844209D101210804FFF7A8FB00214FF441
:1034C0008030FFF7A3FB18E0B048844209D1012106
:1034D0004804FFF79BFB00214FF40030FFF796FBF9
:1034E0000BE0AB48844208D101218804FFF78EFB32
:1034F00000214FF48020FFF789FB10BD00220288D5
:10350000944B98420ED0994B98420BD0B0F1804F1B
:1035100008D0914B984205D0904B984202D0904BE6
:10352000984204D14FF68F731A404B881A438D4B43
:10353000984207D08C4B984204D04FF6FF431A4074
:10354000CB881A4302808B8883850B880385814B47
:1035500098420BD0854B984208D08B4B984205D0AF
:103560008A4B984202D08A4B984201D10B7A03864B
:1035700001238382704770B5002400220023058C4C
:103580004FF6FE7635400584028C8388048B4FF617
:103590008F752C40B51E2C400D882C43751E2A407B
:1035A0000D892A434D882A436A4DA8420BD06F4D9E
:1035B000A84208D0744DA84205D0744DA84202D04C
:1035C000734DA84213D14FF6F7752A404D892A430F
:1035D0004FF6FB752A408D882A434FF6FF652B4036
:1035E0004FF6FF552B408D892B43CD892B4383808C
:1035F0000483CD888586028470BD70B500240022C6
:103600000023058C4FF6EF7635400584028C8388C5
:10361000048B48F6FF752C404FF6FF452C400D8873
:103620004FF6FF7606EA05252C434FF6DF752A4054
:103630000D8906EA05152A434D8806EA05152A4331
:10364000444DA84202D0494DA8421DD14FF67F7586
:103650002A404D894FF6FF7606EA05152A434FF6B4
:10366000BF752A408D8806EA05152A434FF6FF35B7
:103670002B404FF2FF752B408D8906EA85052B43C1
:10368000CD8906EA85052B4383800483CD88058791
:10369000028470BD70B5002400220023058C4FF613
:1036A000FF6635400584028C8388848B4FF68F75C6
:1036B0002C404FF6FC752C400D882C434FF6FF55DF
:1036C0002A400D894FF6FF7606EA05252A434D88E4
:1036D00006EA05252A431F4DA84202D0234DA842E1
:1036E0001DD14FF2FF752A404D894FF6FF7606EA4D
:1036F00005252A434FF6FF352A408D8806EA052521
:103700002A434EF6FF752B404DF6FF752B408D89F1
:1037100006EA05152B43CD8906EA05152B43838060
:103720008483CD888587028470BD70B50022002314
:103730000024058C4EF6FF7635400584038C848882
:10374000828B48F6FF752A404FF6FF452A400D88C8
:1037500020E00000002C0140000400400008004070
:10376000000C0040001000400014004000340140F4
:10377000004C01400050014000540140001800403E
:10378000001C004000200040004001400044014077
:10379000004801404FF6FF7606EA05252A434DF61C
:1037A000FF752B400D8906EA05352B434D8806EA47
:1037B00005352B43FA4DA84202D0FA4DA84208D154
:1037C0004BF6FF752C408D894FF6FF7606EA85157E
:1037D0002C4384808283CD88A0F84050038470BD40
:1037E000828B4FF2FF331A408283828B4FF6FF7336
:1037F00003EA01231A4382837047F0B50C4615464D
:10380000002200210026078C4EF6FF7C07EA0C07F9
:103810000784828B018C4FF6FF7707EA043640F667
:10382000FF473A404FF6FF7707EA05273A434FF63E
:10383000FF7707EA03373A43D94FB8420ED0D94F42
:10384000B8420BD0B0F1804F08D0D74FB84205D066
:10385000D64FB84202D0D64FB84206D14DF6FF77C8
:10386000394046F48057394305E047F6FF57394061
:1038700044F48057394382830184F0BD828B4FF634
:10388000F3731A408283828B0A4382837047F0B5B8
:103890000C461546002200210026078C4FF6FF6CCF
:1038A00007EA0C070784828B018C4FF6FF7707EA43
:1038B00004264FF60C773A404FF6FF7707EA0317D6
:1038C0002F433A43B64FB8420ED0B64FB8420BD052
:1038D000B0F1804F08D0B44FB84205D0B34FB842D2
:1038E00002D0B34FB84206D14FF6FF57394046F4E5
:1038F0008077394305E04FF2FF57394044F4807731
:10390000394382830184F0BD028B4FF2FF331A40AA
:103910000283028B4FF6FF7303EA01231A430283EB
:103920007047F0B50C461546002200210026078C92
:103930004FF6EF7C07EA0C070784028B018C4FF6E9
:10394000FF7707EA041640F6FF473A404FF6FF7745
:1039500007EA03373A434FF6FF7707EA05273A436A
:103960008F4FB8420ED08F4FB8420BD0B0F1804F7E
:1039700008D08D4FB84205D08C4FB84202D08C4F42
:10398000B84206D14FF6DF77394046F01007394389
:1039900005E04FF65F77394044F010073943028362
:1039A0000184F0BD028B4FF6F3731A400283028B41
:1039B0000A4302837047F0B50C46154600220021E9
:1039C000068C4FF6FE773E400684028B018C4FF644
:1039D0000C7632407E1C06EA03162E433243704EAC
:1039E000B0420ED06F4EB0420BD0B0F1804F08D035
:1039F0006D4EB04205D06D4EB04202D06C4EB0421A
:103A000006D14FF6FD76314044F00106314305E022
:103A10004FF6F576314044F00106314302830184CC
:103A2000F0BD70B505460C465D4885420ED05D4838
:103A300085420BD0B5F1804F08D05B48854205D058
:103A40005A48854202D05A48854200D100E000BF62
:103A5000208850B92389A28861882846FFF7ABFFE8
:103A6000E1882846FFF79EFF25E0208804280AD138
:103A70002389A28861882846FFF753FFE1882846FA
:103A8000FFF742FF17E0208808280AD12389A2887F
:103A900061882846FFF7FBFEE1882846FFF7EEFE27
:103AA00009E02389A28861882846FFF7A6FEE188FD
:103AB0002846FFF795FE70BD2DE9F04105460C46FE
:103AC00000260127608808B9022600E00026A088A9
:103AD000012801D1022700E001272088A0B923890D
:103AE000A28861882846FFF766FFE1882846FFF72D
:103AF00059FF23893A4631462846FFF712FFE188ED
:103B00002846FFF701FF13E02389A2886188284631
:103B1000FFF707FFE1882846FFF7F6FE23893A46BC
:103B200031462846FFF747FFE1882846FFF73AFF6E
:103B3000BDE8F0810A884B881A438B881A43CB88EA
:103B40001A430B891A434B891A438B891A43A0F8ED
:103B5000442070474FF6FF71818000210180C180B1
:103B60004180017270470021018041808180C180C5
:103B7000018141818181C1817047002101804180A3
:103B8000012181800021C1800181704700210180D5
:103B900041808180C1800181418181817047000025
:103BA000002C0140003401400004004000080040A7
:103BB000000C004021B1028842F00102028004E0C2
:103BC00002884FF6FE731A400280704731B1B0F898
:103BD000442042F40042A0F8442005E0B0F844201C
:103BE000C2F30E02A0F8442070471AB183890B4338
:103BF000838102E083898B43838170478182704790
:103C000041EA0203A0F8483070471AB183890B4398
:103C1000838102E083898B438381704701894FF65A
:103C2000F8721140018170470A46002101894FF660
:103C30008F73194011430181704730B504460D461A
:103C400029462046FFF7F0FF208940F00700208139
:103C500030BD2DE9F04104460D4616461F46602D45
:103C600006D13B46012231462046FFF75AFE05E0C9
:103C70003B46012231462046FFF79DFE294620465D
:103C8000FFF7D2FF208940F007002081BDE8F081D6
:103C900030B50C4600210189C9B24FF6FF7505EA1F
:103CA0000325154325432943018130BD2DE9F0410A
:103CB00005460E4617469846002443463A46314686
:103CC0002846FFF7E5FF2C894FF6F870044044F0D2
:103CD00007044FF68F70044044F070042C81BDE857
:103CE000F081F0B504460D4616461F463B46324667
:103CF00029462046FFF7CCFF208940F480402081F0
:103D0000F0BD0185828270470A46002101884FF686
:103D10008F731940114301807047F0B50C4615466A
:103D20001E460021002200230189028B038C4FF6DE
:103D3000F877394021434FF6FC473A4040F20117EB
:103D40003A434FF6DD773B404FF6FF7707EA061719
:103D50002F433B43018102830384F0BD0A460021C7
:103D6000018B4FF68F7319401143018370470A4648
:103D70000021018B48F6FF7319404FF6FF7303EAE9
:103D800002231943018370470A460021818B4FF6B5
:103D90008F7319401143818370470A460021818B3C
:103DA00048F6FF7319404FF6FF7303EA02231943E5
:103DB0008183704721B1028842F08002028004E0D2
:103DC00002884FF67F731A400280704721B18288C3
:103DD00042F00402828004E082884FF6FB731A40AE
:103DE0008280704721B1828842F00802828004E01C
:103DF00082884FF6F7731A408280704721B182881B
:103E000042F00102828004E082884FF6FE731A407D
:103E1000828070470A460021018B4FF6F7731940E4
:103E20001143018370470A460021018B4FF2FF7353
:103E300019404FF6FF7303EA0223194301837047C9
:103E40000A460021818B4FF6F77319401143818395
:103E500070470A460021818B4FF2FF7319404FF6DD
:103E6000FF7303EA02231943818370470A46002146
:103E7000018B4FF6FB7319401143018370470A46CB
:103E80000021018B4FF6FF3319404FF6FF7303EA11
:103E900002231943018370470A460021818B4FF6A4
:103EA000FB7319401143818370470A460021818BBF
:103EB0004FF6FF3319404FF6FF7303EA022319430D
:103EC000818370470A460021018B4FF67F731940AA
:103ED0001143018370470A460021018BC1F30E0193
:103EE0004FF6FF7303EA02231943018370470A4622
:103EF0000021818B4FF67F731940114381837047F6
:103F00000A460021818BC1F30E014FF6FF7303EACD
:103F100002231943818370470A460021018C4FF622
:103F2000FD7319401143018470470A460021018C3A
:103F30004FF6F77319401143018470470A46002178
:103F4000018C4FF6DF7319404FF6FF7303EA02133B
:103F50001943018470470A460021018C4FF67F7394
:103F600019404FF6FF7303EA0213194301847047A7
:103F70000A460021018C4FF6FF5319404FF6FF739C
:103F800003EA02231943018470470A460021018C89
:103F90004FF2FF7319404FF6FF7303EA02231943F0
:103FA000018470470A460021018C4DF6FF731940C9
:103FB0004FF6FF7303EA023319430184704730B5AB
:103FC000002301248C40A3B2048C9C430484048C01
:103FD00002FA01F5ADB22C43048430BD30B50023A4
:103FE00004248C40A3B2048C9C430484048C02FA05
:103FF00001F5ADB22C43048430BD70B503460020FA
:1040000000241846183001258D40ACB21D8CA54304
:104010001D8409B1082909D100EB6100056825F06C
:10402000700505600568154305600EE00D1FC5F3BA
:104030004E052844056825F4E045056005684FF6FF
:10404000FF7606EA02263543056070BD21B102887D
:1040500042F00202028004E002884FF6FD731A402B
:104060000280704721B1028842F00402028004E01D
:1040700002884FF6FB731A400280704721B1828894
:1040800042F08002828004E082884FF67F731A40FB
:104090008280704702884FF6F7731A4002800288C8
:1040A0000A430280704782884FF68F731A408280DD
:1040B00082880A438280704702894FF6F8731A405B
:1040C000028102890A430281704702894FF67F7399
:1040D0001A40028102890A43028170478184704735
:1040E0008185704781867047018770478187704757
:1040F000A0F84010704702884FF6FF431A40028034
:1041000002880A43028070470146888E7047014644
:10411000088F70470146888F70470146B1F840000C
:1041200070470146888C70470146088D70470246EB
:104130000020138A0B400BB1012000E000207047E3
:10414000CA430282704730B5024600200023002493
:10415000158A05EA0103958905EA010413B10CB13A
:10416000012000E0002030BDCA4302827047704742
:104170000FB4044910B503AA029800F0D1F910BC9D
:104180005DF814FB400000200FB41CB5074B06AAD5
:104190007B4469460090059800F093F90020694639
:1041A00000F0A2F91CBC5DF814FB000055030000F0
:1041B0002DE9F0410E460446002020622046E168C9
:1041C000884730B3252805D0D4E901219047206ADB
:1041D000401CF2E7E168204600278847050018D018
:1041E000A5F14100192802D820354FF40067324666
:1041F000294620462760FBF7D5FF40B1012804D0AF
:10420000F61D26F007060836D8E7361DD6E72846FD
:10421000DAE7206ABDE8F08170B50C460546012A50
:1042200005D02878800600D5EA69002302E0012342
:1042300005E05B1C934202D2E05C0028F9D1A8693A
:10424000E618C01AA861286A184428622846AFF305
:10425000008004E0D5E9012114F8010B9047B44235
:10426000F8D32846AFF3008070BD00002DE9F0417F
:104270000646002410687529314616A510D0AFF304
:104280000080002802DA404213A507E031688A075F
:1042900001D512A502E0490704D511A5012401E0CA
:1042A000AFF3008000210A2206F1240709E0B0FBE9
:1042B000F2FCB0FBF2F302FB1C00303078541846DD
:1042C000491C0028F3D123462A463046BDE8F04178
:1042D00000F099B8000000002D0000002B00000045
:1042E0002000000030B505460B462A4613F8014B66
:1042F00012F8010B08B1A042F8D01CB1002802D07E
:104300006D1CF1E7284630BD10B5203AC0F00B8097
:10431000B1E81850203AA0E81850B1E81850A0E8C9
:104320001850BFF4F5AF5FEA027C24BFB1E8185023
:10433000A0E8185044BF18C918C0BDE810405FEA93
:10434000827C24BF51F8043B40F8043B08BF70470F
:10435000D20728BF31F8023B48BF11F8012B28BF14
:1043600020F8023B48BF00F8012B70474FF00002D5
:104370000429C0F0128010F0030C00F01B80CCF177
:10438000040CBCF1020F18BF00F8012BA8BF20F8E5
:10439000022BA1EB0C0100F00DB85FEAC17C24BF39
:1043A00000F8012B00F8012B48BF00F8012B7047E3
:1043B0004FF0000200B5134694469646203922BFBE
:1043C000A0E80C50A0E80C50B1F12001BFF4F7AF09
:1043D000090728BFA0E80C5048BF0CC05DF804EBEB
:1043E000890028BF40F8042B08BF704748BF20F859
:1043F000022B11F0804F18BF00F8012B7047704757
:104400007047704770472DE9F0470D469946924630
:10441000044600F124080168880604D5E06921F00B
:104420001001216000E00120A84201DD471B00E0EF
:104430000027A1697A1902EB0900081AA061207807
:10444000C00602D42046AFF30080002608E0D4E97D
:1044500001211AF806009047206A401C761C206251
:104460004E45F4DB2078C0060AD52046AFF3008025
:1044700006E0D4E9012130209047206A401C2062E8
:10448000381EA7F10107F4DC07E0D4E9012118F890
:1044900005009047206A401C2062281EA5F10105F6
:1044A000F3DC2046AFF300802078000602D502201E
:1044B000BDE8F0870120FBE701694A1C026108782A
:1044C000704700B58FB0CDE9013100210591054954
:1044D0007944CDE9031011466846FFF769FE0FB035
:1044E00000BD0000E5FFFFFF0A6802F8010B0A604B
:1044F000704710B5436913B1AFF3008001E0FFF7D7
:104500008BFE012010BD127800F124010A700022F8
:104510004A700122EDE711684FF0FF32E9E7000031
:10452000074B70B50D467B44FFF7CBFF044628468A
:1045300000F008F810B14FF0FF3070BD204670BD9C
:10454000F5DCFFFF007B00F080007047754600F04F
:104550002BF8AE4605006946534620F00700854615
:1045600018B020B5FEF70AF8BDE820404FF000066D
:104570004FF000074FF000084FF0000B21F007014B
:10458000AC46ACE8C009ACE8C009ACE8C009ACE88E
:10459000C0098D46704710B50446AFF30080204631
:1045A000BDE81040FBF713BE0048704714F300202D
:1045B000504F5354202F696E6465782E7068702FA9
:1045C000686F6D652F696D61676520485454502F81
:1045D000312E310D0A486F73743A312E6C6162735B
:1045E000636E752E6170706C696E7A692E636F6D83
:1045F0000D0A436F6E74656E742D4C656E6774683A
:104600003A31390D0A436F6E74656E742D547970AA
:10461000653A6170706C69636174696F6E2F6A735B
:104620006F6E0D0A0D0A7B22726F6F6D4E756D22D3
:104630003A22362D343230227D0000000000000086
:10464000000000000000000000000000000000006A
:10465000000000000000000000000000000000005A
:1046600000000000FF002CFF2EDFFF013C32110094
:10467000090204D813E514482C0C33783A333BFB79
:104680003E0043111610399235DA221A37C323003F
:1046900034C0361A068807C00D870E414C0048000A
:1046A0005B0042034A8121992440253826825C0020
:1046B000630046000C3C617062807C0520802830DD
:1046C0006C006D806E007002719473C13D345A5756
:1046D00012001711187519011A973236030F374057
:1046E0004FCA50A85A236D006D38FF00E57FF9C00E
:1046F0004124E01476FF33A0422043184C0087D5B4
:10470000883FD703D910D382C808C9807C007D00B8
:104710007C037D487D487C087D207D107D0E9000C7
:10472000910E911A9131915A91699175917E91886A
:10473000918F919691A391AF91C491D791E89120D7
:104740009200930693E393059305930093049300DB
:1047500093009300930093009300930096009708B2
:1047600097199702970C97249730972897269702C6
:104770009798978097009700C3EFA400A800C511F1
:10478000C651BF80C710B666B8A5B764B97CB3AFD1
:10479000B497B5FFB0C5B194B20FC45CC0C8C196A0
:1047A0008C00863D50005190522C53005400558887
:1047B0005A905B2C5C05D302C3ED7F00DA09E51F3C
:1047C000E167E000DD7F0500FF002CFF2EDFFF0129
:1047D0003C321100090204D813E514482C0C33783C
:1047E0003A333BFB3E0043111610399235DA221A58
:1047F00037C3230034C0361A068807C00D870E4120
:104800004C0048005B0042034A812199244025382E
:1048100026825C00630046220C3C617062807C054D
:10482000208028306C006D806E007002719473C11E
:104830003D345A5712401711184319001A4B3209C8
:1048400037C04FCA50A85A236D003D38FF00E57F9E
:10485000F9C04124E01476FF33A0422043184C00F5
:1048600087D5883FD703D910D382C808C9807C0078
:104870007D007C037D487D487C087D207D107D0E79
:104880009000910E911A9131915A91699175917E92
:104890009188918F919691A391AF91C491D791E80E
:1048A00091209200930693E393059305930093045C
:1048B000930093009300930093009300930096005D
:1048C000970897199702970C97249730972897265F
:1048D00097029798978097009700C3EDA400A800CF
:1048E000C511C651BF80C710B666B8A5B764B97CFC
:1048F000B3AFB497B5FFB0C5B194B20FC45CC06498
:10490000C14B8C00863D500051C852965300540054
:1049100055005AC85B965C00D302C3ED7F00DA09EC
:10492000E51FE167E000DD7F0500FF00DA10D70337
:10493000DF0033803C40E1770000FF01E014E177C5
:10494000E51FD703DA10E000FF01242025182660B8
:10495000FF012434251C2600FF01243E2538268132
:10496000FF01244825402681FF0124582550269226
:104970002D2D2D2D69616E7368690D0A436F6E745C
:10498000656E742D446973706F736974696F6E3AE4
:1049900020666F726D2D646174613B206E616D6580
:1049A0003D22362D343230223B2066696C656E61C3
:1049B0006D653D22362D3432302E6A7067220D0A25
:1049C000436F6E74656E742D547970653A20696D0D
:1049D0006167652F6A7065670D0A0D0A00000000A7
:1049E000504F5354202F696E6465782E7068702F75
:1049F000686F6D652F696D6167652F75706C6F618C
:104A000064732F696D6167654E616D652F362D3456
:104A1000323020485454502F312E310D0A486F73D4
:104A2000743A312E6C616273636E752E6170706CB6
:104A3000696E7A692E636F6D0D0A436F6E74656ED1
:104A4000742D547970653A6D756C74697061727407
:104A50002F666F726D2D646174613B626F756E6459
:104A60006172793D2D2D69616E7368690D0A0000D0
:104A7000904A000800000020580000006C01000867
:104A8000E84A00085800002020F9000088010008CA
:104A90000000000000A24A04000000000000000026
:104AA000010203040607080901000000BB09000811
:104AB000E10900085800002058E400200000000030
:104AC00000000000000000000000000000000000E6
:104AD00000000000000000000102030401020304C2
:084AE00006070809020406089C
:0400000508000131BD
:00000001FF
